:100000000C94770B0C94940B0C9428130C94940B75
:100010000C94940B0C94940B0C94940B0C94940BE4
:100020000C94940B0C94940B0C94940B0C94AB20A8
:100030000C94940B0C94940B0C94940B0C94FC0B5C
:100040000C94940B0C94940B0C94C2180C94940B79
:100050000C945F0F0C94940B0C943B0F0C94940B2A
:100060000C94940B0C94940B0C94940B0C94940B94
:10007000CA10E010E9100E1118113211FE107111A2
:100080007011791183118F11A0117B114572726F5C
:100090007200436F6D6D616E64206E6F74207265C7
:1000A000636F676E697365640054797065202268B8
:1000B000656C7020636F6D6D616E645F6E616D6500
:1000C0002220746F206765742064657363726970A1
:1000D00074696F6E20666F722073706563696669FC
:1000E0006320636F6D6D616E640D0A00436F6D6D0B
:1000F000616E647320617661696C61626C653A0D52
:100100000A0D0A0041524446205472616E736D69B3
:1001100074746572204669726D776172650D0A0D9F
:100120000A436F7079726967687420284329203206
:100130003031362053696D6F6E204B6175666D618D
:100140006E6E2C204A6F736566204865656C2C20A6
:1001500048654B610D0A0D0A546869732070726F0F
:100160006772616D20636F6D6573207769746820B5
:100170004142534F4C5554454C59204E4F20574106
:100180005252414E54590D0A5468697320697320C4
:100190006672656520736F6674776172652C20796D
:1001A0006F75206172652077656C636F6D65207473
:1001B0006F20726564697374726962757465206911
:1001C000740D0A756E6465722074686520746572BA
:1001D0006D73206F662074686520474E5520476513
:1001E0006E6572616C205075626C6963204C696346
:1001F000656E73652076657273696F6E20332E0DA0
:100200000A0D0A466F7220667572746865722069FD
:100210006E666F726D6174696F6E20616E642064CA
:100220006F63756D656E746174696F6E2072656C55
:100230006174656420746F20746869732070726FD4
:100240006A6563742076697369743A0D0A68747418
:10025000703A2F2F617264662E68656B612E6F7223
:100260002E61742F0D0A0D0A54797065202268657D
:100270006C702220666F722061206C697374206F2D
:100280006620617661696C61626C6520636F6D6D7B
:10029000616E64730D0A0D0A004672657175656EB4
:1002A00063792073657420746F3A20004D4F004DC0
:1002B0004F35004D4F48004D4F53004D4F49004DB5
:1002C0004F45006F6666006F6E00415244462054F1
:1002D00072616E736D697474657223200022736598
:1002E000742072656C6F61642220636F6D6D616E46
:1002F000643A0D0A676976652065697468657220DD
:100300006F6E206F72206F666620746F2073657445
:1003100020696620666F78207368616C6C20726556
:100320006C6F61640D0A636F6E66696775726174E4
:10033000696F6E2061667465722065616368206311
:100340006F6D6D616E64206F72206E6F740D0A0D9B
:100350000A6578616D706C653A207365742072650A
:100360006C6F6164206F6E00227072696E7420661B
:100370006F7820686973746F72792220636F6D6D76
:10038000616E643A0D0A666F78206F7574707574CB
:100390007320746865207361766564207573657277
:1003A00020686973746F727920696E206565707258
:1003B0006F6D0D0A0D0A6578616D706C653A20707D
:1003C00072696E7420666F7820686973746F7279D1
:1003D0000022676574206372797374616C206672A1
:1003E000657175656E63792220636F6D6D616E64F2
:1003F0003A0D0A666F78206F757470757473207487
:100400006865206672657175656E6379206F662018
:1004100074686520646473206372797374616C20FE
:1004200063616C696272617465640D0A627920228D
:10043000736574206372797374616C206672657180
:1004400075656E6379220D0A0D0A6578616D706CB1
:10045000653A20676574206372797374616C2066F5
:1004600072657175656E6379002273657420626CC4
:10047000696E6B696E672220636F6D6D616E643AA1
:100480000D0A6769766520656974686572206F6E0C
:10049000206F72206F666620746F206C6574206C0C
:1004A0006564206F6620666F7820626C696E6B20D1
:1004B0006F72206E6F740D0A626C696E6B696E6785
:1004C0002063616E206265207573656420746F20FF
:1004D000636865636B20696620636F72726563741D
:1004E00020666F7820697320636F6E666967757226
:1004F000656420617420746865206D6F6D656E742D
:100500000D0A0D0A6578616D706C653A207365742B
:1005100020626C696E6B696E67206F6E0022676582
:100520007420666F78206E756D6265722220636F2D
:100530006D6D616E643A0D0A666F78207265747530
:10054000726E732069747320666F78206E756D62A9
:100550006572207365742062792022736574206649
:100560006F78206E756D626572220D0A0D0A6578CE
:10057000616D706C653A2067657420666F78206ED7
:10058000756D6265720022736574207472616E739A
:100590006D6974206D696E7574652220636F6D6D71
:1005A000616E643A0D0A67697665207472616E73D4
:1005B0006D6974206D696E757465206F6620666F55
:1005C00078206265747765656E20300D0A616E640F
:1005D000207468652076616C75652073657420628F
:1005E00079202273657420666F78206D61782220EF
:1005F0006D696E757320310D0A30206D65616E7303
:10060000207468617420666F782073656E6473204F
:10061000617420626567696E6E696E67206F66201F
:100620006576656E740D0A31206D65616E73207498
:1006300068617420666F782073656E6473206F6ED6
:1006400065206D696E7574652061667465722062DF
:100650006567696E6E696E670D0A616E6420736FFF
:10066000206F6E0D0A0D0A6578616D706C653A2019
:10067000736574207472616E736D6974206D696E38
:100680007574652030002272657365742068697323
:10069000746F72792220636F6D6D616E643A0D0A1A
:1006A00064656C6574652075736572206869737420
:1006B0006F727920696E7369646520656570726F09
:1006C0006D206F66207472616E736D6974746572EB
:1006D0000D0A0D0A6578616D706C653A207265735C
:1006E000657420686973746F727900227365742071
:1006F0007365637265742220636F6D6D616E643A19
:100700000D0A67697665202872616E646F6D292015
:10071000736563726574206B6579206F6620666F00
:1007200078206265747765656E203120616E642083
:1007300036353533350D0A6B65792069732077724C
:10074000697474656E206F6E746F207461677320B6
:1007500061732070726F6F66207468617420666FB9
:100760007820776173207265616C6C7920666F7593
:100770006E64630D0A0D0A6578616D706C653A20D0
:10078000736574207365637265742033343231315C
:10079000002273657420616D706C697475646522E4
:1007A00020636F6D6D616E643A0D0A67697665202E
:1007B000616D706C6974756465206F662074726118
:1007C0006E736D6974746572206F757470757420C2
:1007D000696E2070657263656E740D0A0D0A657826
:1007E000616D706C653A2073657420616D706C6921
:1007F0007475646520313030002273686F77206330
:100800006F6E6669672220636F6D6D616E64733A07
:100810000D0A6F757470757420636F6E6669677505
:10082000617274696F6E206F6620666F780D0A0DB5
:100830000A6578616D706C653A2073686F77206324
:100840006F6E6669670000227365742069642220F8
:10085000636F6D6D616E643A0D0A67697665206934
:1008600064206265747765656E203120616E642056
:10087000363535333520746F207772697465206F93
:100880006E746F20746865206E6578742072666976
:1008900064207461670D0A69642069732077726946
:1008A0007474656E20617320736F6F6E20617320A6
:1008B000746865206E6578742074616720697320A0
:1008C0007265636F676E697365640D0A7768696C3A
:1008D000652077616974696E6720666F722074683D
:1008E0006520746167206E6F206F74686572206385
:1008F0006F6D6D616E647320617265207265636FE8
:10090000676E697365640D0A747970652022657875
:1009100069742220746F2063616E63656C20746853
:10092000652070726F636573730D0A0D0A657861D7
:100930006D706C653A2073657420696420313030C5
:100940000022657869742220636F6D6D616E643A70
:100950000D0A657869747320746865207365742066
:100960006964206D6F646520616674657220636FD1
:100970006D6D616E642022736574206964220D0AB6
:10098000736574206964206D6F64652069732061EC
:100990006C736F2065786974656420696620746182
:1009A00067206973207772697474656E2077697443
:1009B000682069640D0A736F206578697420697313
:1009C000206F6E6C79206E656564656420696620B1
:1009D0006F6E652077616E7420746F2063616E6343
:1009E000656C207468652069642077726974696E2B
:1009F000670D0A0D0A6578616D706C653A2065783F
:100A00006974002272656C6F61642220636F6D6D82
:100A1000616E643A0D0A6E6F20706172616D65746B
:100A200065720D0A72656C6F61647320666F782061
:100A300073657474696E67730D0A0D0A6578616D6C
:100A4000706C653A2072656C6F6164002273657426
:100A5000206D6F7273696E672220636F6D6D616EBA
:100A6000643A0D0A67697665206569746865722065
:100A70006F6E206F72206F666620746F20646973DA
:100A800061626C65206F7220656E61626C65206DBD
:100A90006F7273696E670D0A6966206D6F72736994
:100AA0006E672069732064697361626C656420639A
:100AB0006F6E74696E756F757320636172726965AC
:100AC00072206973207472616E736D6974746564E9
:100AD00020696E73746561640D0A0D0A6578616D35
:100AE000706C653A20736574206D6F7273696E6700
:100AF000206F6E0022736574206D6F64756C617475
:100B0000696F6E2220636F6D6D616E643A0D0A67C6
:100B100069766520656974686572206F6E206F72F2
:100B2000206F666620746F20656E61626C65206F51
:100B3000722064697361626C6520616D706C6974A8
:100B4000756465206D6F64756C6174696F6E0D0AF4
:100B50000D0A6578616D706C653A20736574206D5F
:100B60006F64756C6174696F6E206F6E00227365BF
:100B70007420666F78206D61782220636F6D6D61DF
:100B80006E643A0D0A67697665206D6178696D75E6
:100B90006D206E756D626572206F66207472616E75
:100BA000736D697474657273207573656420696E02
:100BB000206576656E740D0A286578636C756469C6
:100BC0006E672062616B656E2F64656D6F20666F66
:100BD00078290D0A73657474696E672069732075CE
:100BE00073656420617320696E74657276616C2030
:100BF000666F72207472616E736D6974206D696EB8
:100C0000757465730D0A35206D65616E73207468A7
:100C1000617420666F782077696C6C207472616EE5
:100C2000736D69742065766572792035206D696E03
:100C3000757465730D0A34202D3E207472616E73D5
:100C40006D69742065766572792034206D696E75E2
:100C500074657320616E6420736F206F6E0D0A0DD2
:100C60000A6578616D706C652028616C6C20666F18
:100C70007865732075736564293A207365742066FE
:100C80006F78206D61782035002273657420666F5F
:100C900078206E756D6265722220636F6D6D616E76
:100CA000643A0D0A67697665206E756D626572201B
:100CB0006F6620666F78206265747765656E203098
:100CC00020616E6420350D0A3020697320666F72D2
:100CD0002062616B656E2F64656D6F207472616E4A
:100CE000736D69747465720D0A31202D2035206989
:100CF0007320666F7220616C6C206F74686572205F
:100D00007472616E736D6974746572730D0A7365C4
:100D10007474696E67206973207573656420746FDD
:100D2000206964656E74696679207472616E736D92
:100D300069747465727320696E20706320736F66C6
:100D400074776172650D0A0D0A6578616D706C6566
:100D50003A2073657420666F78206E756D626572D7
:100D600020310022736574206372797374616C2082
:100D70006672657175656E63792220636F6D6D6152
:100D80006E643A0D0A676976652065786163742040
:100D90006672657175656E6379206F662064647331
:100DA000206372797374616C20666F722063616C6A
:100DB0006962726174696F6E20696E206865727411
:100DC0007A0D0A0D0A6578616D706C653A2073655D
:100DD00074206372797374616C20667265717565D5
:100DE0006E63792032353030303132330022736512
:100DF00074206672657175656E63792220636F6D0C
:100E00006D616E643A0D0A67697665206672657178
:100E100075656E6379206F66206F757470757420C8
:100E20007369676E616C20696E20686572747A0DF3
:100E30000A6672657175656E63792073686F756C8B
:100E400064206265206265747765656E20332E3597
:100E500020746F20332E38204D487A202838306D8A
:100E60002062616E64290D0A6F7220626574776575
:100E7000656E2031343420616E6420313436204D6B
:100E8000487A2028326D2062616E64290D0A0D0AAD
:100E90006578616D706C652028332E354D487A2950
:100EA0003A20736574206672657175656E6379208A
:100EB0003335303030303000227365742063616C1C
:100EC0006C207369676E2220636F6D6D616E643A8A
:100ED0000D0A676976652063616C6C207369676EC3
:100EE00020746861742073686F756C64206265207B
:100EF000757365642062792074686520666F780D6B
:100F00000A63616C6C207369676E206D7573742061
:100F1000626520656974686572206D6F652C206D4F
:100F20006F692C206D6F732C206D6F682C206D6F96
:100F300035206F72206D6F0D0A0D0A6578616D7036
:100F40006C653A207365742063616C6C207369670B
:100F50006E206D6F6500227365742077706D22209E
:100F6000636F6D6D616E643A0D0A736574206D6F09
:100F70007273696E6720737065656420696E20778F
:100F80006F72647320706572206D696E7574650D83
:100F90000A77706D2076616C7565206D75737420AD
:100FA000626520696E74656765722076616C75652F
:100FB00020616E640D0A616E642073686F756C64E5
:100FC000206E6F74206265206269676765722074A5
:100FD00068616E2036300D0A0D0A6578616D706C9F
:100FE000653A207365742077706D2031300022736C
:100FF00065742073746F7020646174652220636F60
:101000006D6D616E643A0D0A6769766520656E6480
:101010002064617465206F66206576656E74206952
:101020006E20666F726D617420595959592D4D4D5E
:101030002D44440D0A0D0A6578616D706C653A2087
:101040007365742073746F7020646174652032302E
:1010500031362D30342D303800227365742073748E
:101060006F702074696D652220636F6D6D616E64B1
:101070003A0D0A6769766520656E642074696D654E
:10108000206F66206576656E7420696E20666F72CB
:101090006D61742048483A4D4D3A53530D0A0D0A7C
:1010A0006578616D706C653A207365742073746F38
:1010B000702074696D652032333A35393A3539001C
:1010C0002273657420737461727420646174652284
:1010D00020636F6D6D616E643A0D0A6769766520F5
:1010E00073746172742064617465206F6620657624
:1010F000656E7420696E20666F726D617420595937
:1011000059592D4D4D2D44440D0A0D0A6578616DD8
:10111000706C653A20736574207374617274206416
:1011200061746520323031362D30342D3038002254
:101130007365742073746172742074696D65222004
:10114000636F6D6D616E643A0D0A67697665207331
:10115000746172742074696D65206F6620657665B0
:101160006E7420696E20666F726D61742048483A13
:101170004D4D3A53530D0A686F757273206861764E
:101180006520746F20626520676976656E20696EE0
:101190002032342D686F757220666F726D61740D28
:1011A0000A0D0A6578616D706C653A20736574206C
:1011B00073746172742074696D652031303A303017
:1011C0003A303000227365742064617465222063B4
:1011D0006F6D6D616E643A0D0A676976652063759F
:1011E0007272656E74206461746520696E20666F2A
:1011F000726D617420595959592D4D4D2D44440D2E
:101200000A0D0A6578616D706C653A20736574200B
:101210006461746520323031362D30342D30380021
:10122000227365742074696D652220636F6D6D6132
:101230006E643A0D0A676976652063757272656E31
:10124000742074696D6520696E20666F726D6174BB
:101250002048483A4D4D3A53530D0A686F757273E2
:10126000206861766520746F206265206769766505
:101270006E20696E2032342D686F757220666F7231
:101280006D61740D0A0D0A6578616D706C653A20A8
:101290007365742074696D652031363A35393A3595
:1012A00039007365742072656C6F616400707269D7
:1012B0006E7420666F7820686973746F7279006746
:1012C0006574206372797374616C206672657175E0
:1012D000656E63790073657420626C696E6B696E0C
:1012E000670067657420666F78206E756D62657241
:1012F00000736574207472616E736D6974206D691A
:101300006E75746500726573657420686973746FB7
:101310007279007365742073656372657400736518
:101320007420616D706C69747564650073686F77A3
:1013300020636F6E6669670068656C700073657422
:1013400020696400657869740072656C6F6164007F
:10135000736574206D6F7273696E670073657420B6
:101360006D6F64756C6174696F6E0073657420666F
:101370006F78206D61780073657420666F78206ED9
:10138000756D626572007365742063727973746140
:101390006C206672657175656E6379007365742083
:1013A0006672657175656E6379007365742063613B
:1013B0006C6C207369676E007365742077706D00C4
:1013C0007365742073746F70206461746500736555
:1013D000742073746F702074696D65007365742078
:1013E0007374617274206461746500736574207332
:1013F000746172742074696D650073657420646132
:101400007465007365742074696D650053746F7042
:1014100020646174653A200053746F702074696DA4
:10142000653A2000537461727420646174653A20D7
:101430000053746172742074696D653A20004D4FD9
:10144000004D4F35004D4F48004D4F53004D4F4913
:10145000004D4F45005958C0000000595830000059
:101460000059580C0000005958030000005958005A
:10147000C00000595C000000005472616E736D6919
:1014800074206D696E7574653A20004D6F727365D6
:10149000206D6F64653A200043616C6C207369674E
:1014A0006E3A20004D6178696D756D206E756D62C4
:1014B0006572206F6620666F78657320757365644A
:1014C0003A2000466F78206E756D6265723A200092
:1014D00000D6788CE2AA0C182AB87A7FD36ACF0B90
:1014E000B137634B69AE91C7C397AE77F437D79BDB
:1014F0007CF53C118F15C3D7C15B002AD075DE9EE9
:101500005164AB3EE915B5AB569A988226EA2A6239
:1015100000EB66BA57BF2395D0E30D3D27895CDE0B
:101520009D3BA700215B8982513AEB020CA5004943
:101530007C844DB3CCD21B815D4876D5716121A9E5
:1015400086968338CF9D5B6DDC15BA3E7D953B2F2B
:1015500000C637D532B7575CC2D87C4DD970C77337
:1015600010E6D2AA5EA13E5A14AF3061C970DB2EDC
:10157000642272B5BD65F4EC22BCD37235CDAA41AC
:101580001FA7F35314DE7E02D90FB55E251D2979FE
:101590005363616E205049434320746F2073656527
:1015A0002055494420616E6420747970652E2E2E7A
:1015B0000D0A0077726974696E672074616720692B
:1015C00064206661696C65642C206D6179626520B8
:1015D0007461672069732077726974652070726F17
:1015E00074656374656420776974682061636365FA
:1015F0007373206B6579002D2D2D20454E442046B8
:101600004F5820484953544F52592030783636307D
:101610003036363030202D2D2D002D2D2D204245F9
:1016200047494E20464F5820484953544F5259205D
:1016300030783636303036363030202D2D2D00487B
:101640006973746F7279207772697474656E0D0AAC
:10165000002D2D2D204552524F522054414720300D
:10166000783535303035353030202D2D2D002D2D6D
:101670002D20454E442054414720307835353030B8
:1016800035353030202D2D2D002D2D2D204E455758
:1016900020544147203078353530303535303020D2
:1016A0002D2D2D002054696D657374616D703A2085
:1016B000005461672049443A20003A2000205365D5
:1016C000637265743A2000466F78203500466F7863
:1016D000203400466F78203300466F782032004671
:1016E0006F782031005461672049443A200011246A
:1016F0001FBECFEFD0E1DEBFCDBF12E0A0E0B1E072
:10170000E2E5F4E602C005900D92AE37B107D9F7D5
:1017100028E0AEE7B2E001C01D92AF35B207E1F7B5
:101720000E94572E0C9427320C94000090917C005C
:10173000907E90937C00813041F480917C00611117
:1017400002C083600BC0826009C0823049F480917E
:101750007C00611102C0856001C0846080937C00C0
:1017600080917A00806C80937A000895CF93C82F7F
:101770000E941F228823E1F390E020E02C1721F043
:10178000969590682F5FFACF5F989EBD0DB407FEC7
:10179000FDCF5F9ACF91089580937E02089581E0F6
:1017A00080937F0208955C9A429A439A3E9A4698A3
:1017B0005F9A579AE1E8F0E08081856080838EEF40
:1017C000809385008AE780938400EFE6F0E08081D3
:1017D00081608083ECE7F0E0808180628083EAE7CB
:1017E000F0E08081866A8083089581E0809388029A
:1017F00008951092880208951F920F920FB60F92CB
:1018000011242F933F934F935F936F937F938F9305
:101810009F93AF93BF93EF93FF938EEF80938500D9
:101820008AE7809384000E942E2E809181028F5F30
:10183000809381028530A9F480917E02882341F053
:101840009BB180E289278BB981E08093800207C039
:1018500080918002813019F4109280025D9810927C
:101860008102FF91EF91BF91AF919F918F917F91F5
:101870006F915F914F913F912F910F900FBE0F90FD
:101880001F901895CF93CAE080918C02882309F4A9
:1018900022C18091C00085FF1EC1E0918F02F0E05F
:1018A000EE0FFF1FE259FC4F8081E0918F02F0E0C4
:1018B000EE0FFF1FE259FC4F811175C0818181112C
:1018C0000DC080918F02E0918D02F0918E02C89F31
:1018D000E00DF11D1124E65FFC4F1AC0E0918F026C
:1018E000F0E0EE0FFF1FE259FC4F8181E0918F0283
:1018F000813081F480918D0290918E02F0E0EE0FA4
:10190000FF1FEA50FD4F0190F081E02DE80FF91F15
:10191000808133C0F0E0EE0FFF1FE259FC4F818160
:10192000E0918F02823081F480918D0290918E023D
:10193000F0E0EE0FFF1FEA50FD4F20813181820F52
:10194000931F0E94E83119C0F0E0EE0FFF1FE2592B
:10195000FC4F8181833009F0A7C0A0918F02E091F4
:101960008D02F0918E02B0E0AA0FBB1FAE57BC4FA4
:101970008D919C91E80FF91F8491882309F494C0FC
:101980008093C60080918D0290918E020196909373
:101990008E0280938D0280918D0290918E02892B10
:1019A00009F482C098C0818181110DC080918F029D
:1019B000E0918D02F0918E02C89FE00DF11D11247F
:1019C000E65FFC4F1AC0E0918F02F0E0EE0FFF1FC0
:1019D000E259FC4F8181E0918F02813081F4809146
:1019E0008D0290918E02F0E0EE0FFF1FEA50FD4F46
:1019F0000190F081E02DE80FF91F808134C0F0E004
:101A0000EE0FFF1FE259FC4F8181E0918F0282307F
:101A100081F480918D0290918E02F0E0EE0FFF1F15
:101A2000EA50FD4F20813181820F931F0E94E831DF
:101A30001AC0F0E0EE0FFF1FE259FC4F81818330A6
:101A400089F4A0918F02E0918D02F0918E02B0E0B6
:101A5000AA0FBB1FAE57BC4F8D919C91E80FF91F89
:101A6000849101C080E08093C60080918D029091A6
:101A70008E02019690938E0280938D0220918D02AA
:101A800030918E0240918D0250918E02E0918F0232
:101A9000F0E0EE0FFF1FE259FC4F808190E0481705
:101AA000590710F4232BB9F410928E0210928D0274
:101AB00080918F028F5F80938F0280918F028A3096
:101AC00010F010928F0290918F02809190029813E3
:101AD000DBCE10928C02CF910895CF93C0919002EB
:101AE000CF5FCA3008F0C0E080918F02C8130EC0EB
:101AF0000E94420C80918F02C81304C080918C0216
:101B00008111F6CFC0939002CF910895C0939002B7
:101B1000CF910C94420C10928C0210929002109271
:101B20008F0210928B0210928A021092C50089E1F6
:101B30008093C400E0ECF0E0808182608083E1EC7F
:101B4000F0E08081886D8083089521E020938C02ED
:101B5000E0919002F0E0EE0FFF1FEA50FD4F9183FD
:101B60008083E0919002F0E0EE0FFF1FE259FC4FFE
:101B70001082E0919002F0E0EE0FFF1FE259FC4F5F
:101B800021830C946D0D91E090938C02E091900272
:101B9000F0E0EE0FFF1FEA50FD4F71836083E0918C
:101BA0009002F0E0EE0FFF1FE259FC4F8083E091BE
:101BB0009002F0E0EE0FFF1FE259FC4F91830C946E
:101BC0006D0D21E020938C02E0919002F0E0EE0F89
:101BD000FF1FEA50FD4F91838083E0919002F0E077
:101BE000EE0FFF1FE259FC4F1082E0919002F0E0EF
:101BF000EE0FFF1FE259FC4F82E081830C946D0DC4
:101C000091E090938C02E0919002F0E0EE0FFF1FC4
:101C1000EA50FD4F71836083E0919002F0E0EE0F97
:101C2000FF1FE259FC4F8083E0919002F0E0EE0F3D
:101C3000FF1FE259FC4F82E081830C946D0D21E07F
:101C400020938C02E0919002F0E0EE0FFF1FEE5720
:101C5000FC4F91838083E0919002F0E0EE0FFF1F34
:101C6000E259FC4F1082E0919002F0E0EE0FFF1F6E
:101C7000E259FC4F83E081830C946D0D91E09093C9
:101C80008C02E0919002F0E0EE0FFF1FEE57FC4F48
:101C900071836083E0919002F0E0EE0FFF1FE25944
:101CA000FC4F8083E0919002F0E0EE0FFF1FE259BD
:101CB000FC4F83E081830C946D0D21E020938C0216
:101CC000DC0120E030E08AE0922F4D91442381F046
:101CD00090919002F901899FE00DF11D1124E65FBA
:101CE000FC4F40832F5F3F4F2930310569F799E062
:101CF000E09190028AE0E89FF0011124E90FF11DC4
:101D0000E65FFC4F1082E0919002F0E0EE0FFF1FC3
:101D1000E259FC4F1082E0919002F0E0EE0FFF1FBD
:101D2000E259FC4F11820C946D0D91E090938C025E
:101D3000FB0120E030E09AE0281788F42A303105D2
:101D400071F0509190024191D901959FA00DB11D64
:101D50001124A65FBC4F4C932F5F3F4FEDCFE09116
:101D60009002F0E0EE0FFF1FE259FC4F8083E091FC
:101D70009002F0E0EE0FFF1FE259FC4F11820C942D
:101D80006D0DCF93DF931F92CDB7DEB79B01AC01F2
:101D9000809190026AE0869FC00111246AE0865F0C
:101DA0009C4F0E9463148130A1F4E0919002F0E016
:101DB000EE0FFF1FE259FC4F1082E0919002F0E01D
:101DC000EE0FFF1FE259FC4F118289830E946D0DB7
:101DD00089810F90DF91CF910895CF93DF931F9268
:101DE000CDB7DEB79B01AC01809190026AE0869F7F
:101DF000C00111246AE0865F9C4F0E944B15813020
:101E0000A1F4E0919002F0E0EE0FFF1FE259FC4FC9
:101E10001082E0919002F0E0EE0FFF1FE259FC4FBC
:101E2000118289830E946D0D89810F90DF91CF917E
:101E3000089530918B0220918A023217D1F00097D9
:101E4000B1F020918A0248E2249F900111242A5681
:101E50003C4FFC013183208380918A028F5F809305
:101E60008A0280918A028E3110F010928A0281E0FB
:101E7000089580E008951F920F920FB60F921124DB
:101E80002F933F934F935F936F937F938F939F9382
:101E9000AF93BF93EF93FF930E94420CFF91EF919A
:101EA000BF91AF919F918F917F916F915F914F9172
:101EB0003F912F910F900FBE0F901F9018951F927A
:101EC0000F920FB60F9211242F938F939F93EF933E
:101ED000FF939091C6009A3011F09D3011F58091DA
:101EE0009102882309F440C0E0918B02809189021D
:101EF00098E2E99FF0011124E80FF11DEA56FC4F2A
:101F0000108280918B028F5F80938B0280918B0275
:101F10008E3110F010928B02109289021092910271
:101F200023C081E080939102E0918B02209189028D
:101F300088E28E9FF0011124E20FF11DEA56FC4F5A
:101F40009083909189029F5F90938902909189027A
:101F5000983250F010928902E0918B028E9FF0012E
:101F60001124EA56FC4F17A2FF91EF919F918F9198
:101F70002F910F900FBE0F901F90189508958730E6
:101F800030F4E82FF0E0EE5CFE4F8081089580E0B1
:101F9000089580919302813009F4E99A0895E998AF
:101FA00008950F931F93CF93DF931F92CDB7DEB7A2
:101FB000182F062F0E94CF0F0E947313811114C097
:101FC0006EED81E00E94891381110EC0812F0E9465
:101FD000AC13811109C0802F0E94AC13811104C081
:101FE00089830E94E513898190919202911104C026
:101FF00089830E94C90F89810F90DF91CF911F9132
:102000000F910895EF92FF921F93CF93DF931F924A
:10201000CDB7DEB7182F7B010E94CF0F0E9473133C
:1020200081111CC06EED81E00E948913811116C0E0
:10203000812F0E94AC13811111C00E947313811172
:102040000DC06EED0E948913811108C0B70181E0B7
:102050000E94BF1389830E94E513898190919202A7
:10206000911104C089830E94C90F89810F90DF916B
:10207000CF911F91FF90EF9008950F931F93CF93EF
:10208000DF931F92CDB7DEB78C01BE016F5F7F4F2C
:102090008DE00E940210811106C0998193FB99275F
:1020A00090F9F80190830F90DF91CF911F910F91DC
:1020B00008950F931F93CF93DF931F92CDB7DEB791
:1020C0008C01BE016F5F7F4F84E10E94021081117D
:1020D00006C0998193FB992790F9F80190830F909E
:1020E000DF91CF911F910F9108950F931F93CF937D
:1020F000DF931F92CDB7DEB78C01BE016F5F7F4FBC
:102100008DE00E9402109981907792959F70F8015E
:1021100090830F90DF91CF911F910F9108950F93AE
:102120001F93CF93DF931F92CDB7DEB78C01BE0113
:102130006F5F7F4F84E10E940210998190779295A2
:102140009F70F80190830F90DF91CF911F910F91B5
:102150000895DF92EF92FF920F931F93CF93DF9337
:1021600000D0CDB7DEB7E82FF62F842F5AE0652FC9
:102170000E946931F92E0E9469314E2F50E047309C
:10218000510508F07AC0E92E9F2FFA01E85CFF4F55
:102190000C94BF31BE016F5F7F4F892F9A830E94DD
:1021A00002109A8181116AC0698160786F293E2D81
:1021B000377080E1389FD00111246A2B892F5AC0D3
:1021C0003E2D377080E1389FB00111246F2981E0E6
:1021D00050C012E0190FBE016F5F7F4F812F0E9428
:1021E000021081114BC0698160746F293E2D3370DC
:1021F00080E1389FF00111246E2B0EC013E0190FFF
:10220000BE016F5F7F4F812F0E940210811136C087
:102210005981587F6F2D652B812F2CC03E2D337037
:1022200080E1389FA00111246F2D642B84E021C030
:1022300025E0D22ED90EBE016F5F7F4F8D2D0E94FB
:10224000021081111BC0398130726F2D632B0E2D4E
:10225000017010E084E0000F111F8A95E1F7602BF8
:102260008D2D08C080E1E89E900111246F2D622B16
:1022700086E0890F0E94D10F01C080E00F900F907F
:10228000DF91CF911F910F91FF90EF90DF90089514
:10229000462F60E00C94A910462F6AE00C94A91018
:1022A000462F61E10C94A910CF92DF92EF92FF923A
:1022B0000F931F93CF93DF931F92CDB7DEB7C82E36
:1022C000D12C37E0C316D10408F04BC08A01862F09
:1022D000F601E15CFF4FBE016F5F7F4F0C94BF3191
:1022E0008F5F0E94021081113DC09981292F2077B4
:1022F00012C08E5F09C08D5F0E940210811132C032
:10230000F80110822FC08C5F0E94021081112AC038
:102310009981292F20732695269526950AC08B5FD3
:102320000E94021081111EC0998194FB222720F97E
:10233000220F322F330F330F230F9F70920F0EC0D7
:102340008A5F0E94021081110DC09981292F229568
:102350002F709F70FAE02F9F900D1124F801908349
:1023600001C080E00F90DF91CF911F910F91FF90FE
:10237000EF90DF90CF900895AB0160E00C94541182
:10238000BF92CF92DF92EF92FF920F931F93CF9362
:10239000DF93CDB7DEB72A970FB6F894DEBF0FBE36
:1023A000CDBF8DEC91E00E94A50DCE0101967C0180
:1023B0006C0110E0B82E0F2DBE01665F7F4F812F9C
:1023C0000E94BC112A8530E040E050E063E0C60185
:1023D0000E94BF141F5F93E0C90ED11C133061F738
:1023E000CE0107960E945D0E84ED91E00E94A50D3E
:1023F000CE0104960E945D0E84ED91E00E94A50D31
:10240000C7010E945D0E84E392E00E94A50D86ED57
:1024100091E00E94A50DBE01665F7F4F812F0E9453
:10242000BC112A8530E040E050E063E0C7010E9423
:10243000BF141F5F83E0E80EF11C163061F78DEDCD
:1024400091E00E94A50DCE0107960E945D0E80EEE0
:1024500091E00E94A50DCE0104960E945D0E80EED3
:1024600091E00E94A50D8B2D902F0E945D0E84E3BC
:1024700092E00E94A50D2A960FB6F894DEBF0FBE1B
:10248000CDBFDF91CF911F910F91FF90EF90DF9023
:10249000CF90BF900895AB016AE00C945411AB014A
:1024A00061E10C945411FF920F93CF93DF9300D00E
:1024B000CDB7DEB7082FF62E0E94CF0F81E08093B4
:1024C0009202BE016F5F7F4F802F0E940210811128
:1024D00006C099816F2D692B802F0E94D10F8A83AE
:1024E0000E94C90F109292028A810F900F90DF9183
:1024F000CF910F91FF90089560E482E00C94531205
:1025000068E083E00C94531260E880E00C9453126E
:1025100068E08DE00C94531268E084E10C9453124F
:1025200060E187E00C94531260E287E00C94531250
:10253000FF920F93CF93DF9300D0CDB7DEB7F82E85
:10254000062F0E94CF0F81E080939202BE016F5F41
:102550007F4F8F2D0E940210811107C0602F609560
:10256000998169238F2D0E94D10F8A830E94C90F00
:10257000109292028A810F900F90DF91CF910F916C
:10258000FF90089560E482E00C94981268E083E084
:102590000C94981260E880E00C94981268E08DE04A
:1025A0000C94981268E084E10C94981260E88130F1
:1025B00019F48DE00C9498128DE00C945312E9E616
:1025C000F0E080818C60808381E0809393020E94A0
:1025D000C90F80E00E94D6120E94CE120E94901273
:1025E0000E94D2120C949412CF93C82F682F677058
:1025F0006295607F8DE00E945312811109C06C2F9B
:10260000609567706295607F8DE0CF910C94981211
:10261000CF910895CF93C82F682F67706295607F20
:1026200084E10E945312811109C06C2F609567707C
:102630006295607F84E1CF910C949812CF910895B8
:1026400060E187E00C94981260E287E00C949812A5
:102650001F920F920FB60F9211242F933F934F9317
:102660005F936F937F938F939F93AF93BF93EF93FA
:10267000FF93CF93DF931F92CDB7DEB7CE010196C4
:102680000E943D10811104C0898181110E94601E49
:10269000CE0101960E945910811104C089818111D7
:1026A0000E9459210E94CE120E94D2120F90DF91F7
:1026B000CF91FF91EF91BF91AF919F918F917F91BA
:1026C0006F915F914F913F912F910F900FBE0F909F
:1026D0001F90189580E28093B8001092B90084E0B2
:1026E00080939402089580919402806A8093BC0044
:1026F0008091BC0087FFFCCF8091B900887F883033
:1027000031F09091B900987F81E0903109F480E038
:102710000895811102C0616005C0813011F081E02F
:1027200008956E7F6093BB0090919402906890939F
:10273000BC009091BC0097FFFCCF813031F48091B8
:10274000B900887F883159F705C08091B900887F2A
:10275000803429F780E008958093BB008091940233
:1027600080688093BC008091BC0087FFFCCF909173
:10277000B900987F81E0983209F480E008958111D2
:1027800004C090919402906C07C0813011F081E0F8
:1027900008959091940290689093BC009091BC0031
:1027A00097FFFCCF811106C08091B900887F8035EA
:1027B00071F705C08091B900887F883541F7809115
:1027C000BB00FB01808380E00895809194028069C2
:1027D0008093BC008091BC0084FDFCCF0895FB0178
:1027E0002491DC0130E0681B790B222369F04D91C4
:1027F000442399F0421311C03F5F3F3F71F0FB014A
:10280000EA0FFB1F2491F1CFFC01E30FF11D81E0E2
:102810009081911103C080E0089582E008954F9265
:102820005F926F927F92BF92CF92DF92EF92FF9270
:102830000F931F93CF93DF93EB01188219821A82B3
:102840001B82FC018C0101501F4FB190BB2061F134
:1028500080ED8B0D8A3010F080E027C0C880D980D1
:10286000EA80FB80AAE0B0E0A70196010E94C53192
:102870002B2D30E0A901405351092A01550F66085C
:102880007708AB01BC01440D551D661D771D4C1525
:102890005D056E057F0500F3488359836A837B835A
:1028A000E017F10791F6D8CF81E0DF91CF911F912A
:1028B0000F91FF90EF90DF90CF90BF907F906F903F
:1028C0005F904F9008954F925F926F927F92AF9278
:1028D000BF92CF92DF92EF92FF920F931F93CF930D
:1028E0006C01C0E0062F10E0015011098AE0482E6B
:1028F000512C612C712CEC2EF12CE016F1069CF47D
:102900005601AE0CBF1CCA01B901A30192010E947D
:102910009D31605DD5016C9321153105410551054F
:1029200021F0CF5FE8CF80E001C081E0F601EE0D3D
:10293000FF1D1182C6952C2F30E090E0492F50E00A
:102940002417350774F0D601A40FB51F6C91F70159
:10295000E41BF50BEC0DFD1D40814C9360839F5FE4
:10296000EDCFCF911F910F91FF90EF90DF90CF901F
:10297000BF90AF907F906F905F904F9008954F926F
:102980005F926F927F928F929F92AF92BF92CF92FF
:10299000DF92EF92FF920F931F93CF93DF938C01FF
:1029A000DC011C92623020F1C0E0C62ED12C560111
:1029B000B1E0AB1AB1088AE0482E512C612C712C81
:1029C00012C048018E0C9F1CCA01B901A3019201DB
:1029D0000E949D31605DD4016C9321153105410544
:1029E000510541F0CF5FEC2EF12CEA14FB044CF3BF
:1029F00080E040C0D801AA0DBB1D1C92C6952C2FAB
:102A000030E080E0482F50E02417350774F0E801EB
:102A1000C40FD51F9881F701E41BF50BE00FF11FE0
:102A20004081488390838F5FEDCFC6010297AC0150
:102A30004E195F09EC18FD088417950764F0FC0136
:102A4000EE0DFF1DE00FF11F2281F801E80FF91FC5
:102A500020830197F1CF20E030E3822F90E08417AC
:102A6000950734F4F801E80FF91F30832F5FF5CF95
:102A70001C9281E0DF91CF911F910F91FF90EF9019
:102A8000DF90CF90BF90AF909F908F907F906F908E
:102A90005F904F900895EF92FF921F93CF93DF9333
:102AA000FC0190E070E061507109E92EF12CE6160E
:102AB000F706DCF4DF01AE0DBF1D822F8F70C0E37F
:102AC000C80FD4E05695479537952795DA95D1F7F5
:102AD000CA3310F4CC9302C0895C8C932115310564
:102AE0004105510521F09F5FE0CF80E001C081E00A
:102AF000DF01AE0DBF1D11961C929695292F30E077
:102B000090E0692F70E02617370774F0EF01C60FC9
:102B1000D71F1881D701A61BB70BAE0FBF1F6C9133
:102B200068831C939F5FEDCFDF91CF911F91FF9042
:102B3000EF900895AC0120E0FA01E20FF11D9081C1
:102B4000992341F08FE9890F8A3110F490529083D4
:102B50002F5F91F708950DB407FEFDCF08952A9ACF
:102B60002A980895EF92FF921F93CF93DF93D82F67
:102B70007B01C42F0E941F228823D9F02C98DEBD30
:102B80000E94AB1510E00C2E000CDD0B812F90E0A5
:102B90008C179D074CF4F701E80FF91F80818EBD5B
:102BA0000E94AB151F5FF2CF2C9A2998299A299879
:102BB00081E0DF91CF911F91FF90EF900895CF9327
:102BC000DF9300D000D0CDB7DEB76C837B838A83E0
:102BD000998344E0BE016F5F7F4F84E00E94B2158D
:102BE0000E94AF150F900F900F900F90DF91CF9133
:102BF0000895CF93DF9300D01F92CDB7DEB7209119
:102C00009602213011F080E090E09F7399838A83CF
:102C100042E0BE016F5F7F4F82E00E94B2158B835E
:102C20000E94AF158B810F900F900F90DF91CF9185
:102C30000895853638F4682F80E090E00E94FC31DA
:102C400081E0089580E0089580E090E00E94E831FE
:102C5000853608F084E608950F931F938B019C013D
:102C6000005814482E41310901301D44224D38408E
:102C700040F4AB01BC0186E090E00E940A3281E0A2
:102C800001C080E01F910F9108950F931F9386E07C
:102C900090E00E94F0318B019C01005814482E41B5
:102CA000310901301D44224D384020F060EE77E6B6
:102CB00085E390E01F910F9108950F931F938B016F
:102CC0009C011D52214331400138164928493105E4
:102CD00040F4AB01BC0182E090E00E940A3281E046
:102CE00001C080E01F910F9108950F931F9382E020
:102CF00090E00E94F0318B019C011D522143314034
:102D0000013816492849310520F060E478E78DE75D
:102D100091E01F910F910895682F81E090E00C944D
:102D2000FC3181E090E00E94E83191E0813009F0CF
:102D300090E0892F089582EE91E00E94A50D0E94F7
:102D400045160E94C10E8EEE91E00E94A50D84E30F
:102D500092E00E94A50D81EF91E00E94A50D0E94D6
:102D600075160E94C10E8EEE91E00E94A50D84E3BF
:102D700092E00E94A50D85E092E00E94A50D0E94C0
:102D80002416682F70E080E090E00E94C10E81E17F
:102D900092E00E94A50D84E392E00E94A50D0E949E
:102DA0009116813019F483E192E002C082E292E050
:102DB0000E94A50D84E392E00C94A50D8F929F9242
:102DC000AF92BF92CF92DF92EF92FF928091AD02CD
:102DD000811112C00E94451660317105810591056F
:102DE00068F00E949116813081F4CC24CA949FE24D
:102DF000D92EE12CF12C0FC0813039F0CC24CA94AB
:102E00002FE3D22EE12CF12C06C08CECC82E8CE1E5
:102E1000D82EE12CF12C80E090E00E94E831682F60
:102E200070E080E090E00E944C3020E030E048EC20
:102E300052E40E94A92F4B015C01C701B6010E9418
:102E40004A309B01AC01C501B4010E94FC300E94D4
:102E50001B30CB01FF90EF90DF90CF90BF90AF90F1
:102E60009F908F900895CF93DF93D0919602C1E009
:102E7000C09396020E94DE160E94F915813089F4F3
:102E800080919502813031F490916E009160909321
:102E90006E000CC080916E008E7F80936E0081E08A
:102EA00005C0D0939602C093460880E0DF91CF9191
:102EB0000895CF93DF93D0919602109296020E94CC
:102EC000DE160E94F915C82F813049F480916E00FA
:102ED0008E7F80936E0081E00E94142206C0D09302
:102EE000960282E080934608C0E08C2FDF91CF915C
:102EF00008954F925F926F927F92BF92CF92DF922E
:102F0000EF92FF920F931F93CF93DF930E94A7201E
:102F10001092AD020E944516613079408D439105B3
:102F200018F01198109A02C01098119A81B183601C
:102F300081B90E9445162B013C010E9475166B0158
:102F40007C01C301B2010E944A302B013C01C70140
:102F5000B60124E0660F771F881F991F2A95D1F7C5
:102F60000E944A309B01AC01C301B2010E94A92F0B
:102F700020E030E040E85FE40E94FC300E941B301B
:102F80000E94DF1539E3C32E31E0D32E47E9E42E4A
:102F900042E0F42EC1EAD2E0BC2E8AE0B80EF6017F
:102FA000619071906F010E94DE168C01B30180E088
:102FB00090E00E944A3020E03CEF4FE756E40E9448
:102FC000A92F2B013C01B80180E090E00E944A301B
:102FD0009B01AC01C301B2010E94FC300E941B3076
:102FE00069937F73F70171937F01BC12D8CF0E9460
:102FF000DE160E94F9150E94AF150E94911680936B
:103000009502DF91CF911F910F91FF90EF90DF908C
:10301000CF90BF907F906F905F904F900895CF9327
:10302000DF9300D000D0CDB7DEB785B5826085BD17
:10303000EEE6F0E080818E7F808385B1827F85B966
:103040002C9A84B18F6B84B9289A8AE18A95F1F71A
:1030500000C028988CB580658CBD8DB581608DBD14
:1030600082E089831A828B831C8244E0BE016F5FF9
:103070007F4F80E00E94B2150E94AF1519821A821C
:1030800080E88B8343E0BE016F5F7F4F81E00E9449
:10309000B2150E94AF150E9459170E9479170F9020
:1030A0000F900F900F90DF91CF9108958091460877
:1030B000813039F40E943317813041F41092460870
:1030C00008958230D9F70E945917F6CF08952B9AA8
:1030D00008952B9808951198109A0E94751624E06F
:1030E000660F771F881F991F2A95D1F70E944A30D3
:1030F0009B01AC0160E474E589E09DE40E94A92F86
:1031000020E030E040E85FE40E94FC300E941B3089
:103110000E94DF1581E08093AD020E945917109242
:1031200095020C94A0201098119A0E94751624E024
:10313000660F771F881F991F2A95D1F70E944A3082
:103140009B01AC0160E87FE985E59AE40E94A92F24
:1031500020E030E040E85FE40E94FC300E941B3039
:103160000E94DF1582E08093AD020E9459171092F1
:1031700095020C94A0200E9479170E94A72010921B
:10318000AD0208951F920F920FB60F9211242F9344
:103190003F934F935F936F937F938F939F93AF93DF
:1031A000BF93CF93DF93EF93FF938BEE86BD809118
:1031B000AC028F5F8093AC02813021F480E00E94EA
:1031C00014223AC08630C0F18091AB028F5F8093A9
:1031D000AB028A3011F41092AB02E091AB02F0E046
:1031E000E956FD4FD081E091AB02F0E0EF55FD4F85
:1031F000C0810E941F228823E9F02C9882E08EBDB6
:103200000E94AB1580919602813029F01EBC0E946D
:10321000AB151EBC04C0DEBD0E94AB15CEBD0E9426
:10322000AB152C9A2998299A29980E94AF1581E00C
:103230000E9414221092AC02FF91EF91DF91CF9186
:10324000BF91AF919F918F917F916F915F914F91BE
:103250003F912F910F900FBE0F901F9018950F93D5
:103260001F93CF93DF938C01EB011882E881EC313F
:10327000F8F4F0E0EE0FFF1FEB56FE4F6081718116
:10328000C8010E94EF13813011F480E012C0E88180
:10329000F0E0EE0FFF1FEB56FE4F60817181C80119
:1032A0000E94EF13882389F388818F5F8883DECFA4
:1032B00081E0DF91CF911F910F9108954F925F921E
:1032C0006F927F92AF92BF92CF92DF92EF92FF9276
:1032D0000F931F93CF93DF93CDB7DEB72A970FB627
:1032E000F894DEBF0FBECDBFFC01CE0101966C018C
:1032F0005C0190E030E08F01090F111DD5010D93A5
:103300001D935D01DF01A90FB11D8C919F5F861395
:1033100017C01C923F5F333071F7022FF42E0E94CA
:10332000CF0F8DEFE82EEF0C1F2DAF2CB12CB2E09C
:10333000AB1AB10894E6492E512C612C712C35C082
:10334000323051F0DF01A90FB11D8C918111DACF1C
:103350003230C1F282E04BC08111F4CFDACFF116E6
:10336000A0F1BE01695F7F4FF601819191916F01DC
:103370000E940F148130F9F4153061F46F81788563
:1033800089859A85A30192010E949D316F83788778
:1033900089879A876F81812F01110FC00E94761C47
:1033A000813049F41E1539F01150812F90E08A15B3
:1033B0009B05ACF60AC012E017C0013019F40E9458
:1033C0008E1CEECF0E944811EDCF60E086E0011127
:1033D00003C00E94761C07C0013019F40E948E1CA5
:1033E00002C00E94481110E00E94C90F812F2A9646
:1033F0000FB6F894DEBF0FBECDBFDF91CF911F9106
:103400000F91FF90EF90DF90CF90BF90AF907F90A3
:103410006F905F904F90089584E091E00C941F0EA0
:10342000E091AE02F0E0EE0FFF1FE75AFE4F808101
:1034300091810E941F0E84E392E00C94A50DCF921F
:10344000DF92EF92FF920F931F93CF93DF93CDB74D
:10345000DEB727970FB6F894DEBF0FBECDBF8091C1
:10346000AF02813049F0CE0105960E94190FE82E77
:10347000882309F42AC21BC00E946D2B813081F081
:10348000CE0101960E94190F813079F464E473E152
:1034900089819A810E94EF13823039F00E94732B48
:1034A0001092AF0263E0F62E05C2E12C0EC2BE01FF
:1034B000695F7F4F8D819E810E942F19F82E8111A7
:1034C000E0C12D813E81EF81F0E0EE0FFF1FEB5652
:1034D000FE4F60817181FB01449180E0442341F003
:1034E0008F5FFB01E80FF11D44918F3FB9F7D4C105
:1034F000A901480F511DCA018C010196F8012081D4
:103500002032D1F3F801980121503F4FDF01819122
:10351000811106C01C92E090AE02EE2049F0D2C1AB
:103520008D30C1F38A30B1F3E217F30779F7B4C1F4
:103530009F81911102C022E007C0913011F422E076
:103540000DC0923021F420E042E06AE309C09330DC
:1035500011F421E0F9CF943041F420E045E06DE230
:10356000C8010E945E19F82E81C1953011F421E046
:10357000F5CF9630F1F4BE016F5F7F4FC8010E9416
:103580000F14813009F021C189819A81AB81BC81FE
:10359000AC01BD014550510961097109483351051C
:1035A0006105710508F011C10E94661F0E94741F19
:1035B0005DC19730D1F4C8010E949A154DE4C42E24
:1035C00041E0D42EE12CF601619171916F01C801A7
:1035D0000E94EF13811104C08E2D0E94D31F46C19B
:1035E000E394F6E0EF12EFCFF0C0983081F4BE0123
:1035F0006F5F7F4FC8010E940F14813009F0E5C052
:1036000069817A818B819C810E942C16E4C099305B
:1036100081F4BE016F5F7F4FC8010E940F1481309B
:1036200009F0D3C069817A818B819C810E945D16EB
:10363000D2C09A3069F4BE016F5F7F4FC8010E940B
:103640000F14813009F0C1C089810E94901FC3C04E
:103650009B3069F4BE016F5F7F4FC8010E940F1459
:10366000813009F0B2C089810E94C61FB4C09C306D
:10367000A9F467EC72E0C8010E94EF13823011F0E8
:1036800081E009C063EC72E0C8010E94EF13823050
:1036900009F49BC080E00E948C16E8C09D30A9F41C
:1036A00067EC72E0C8010E94EF13823011F081E0F4
:1036B00009C063EC72E0C8010E94EF13823009F484
:1036C00084C080E00E945920D1C09E3019F40E942D
:1036D000CF0BCCC09031E9F4BE016F5F7F4FC801C2
:1036E0000E940F14813089F489819A81AB81BC8159
:1036F000AC01BD0141505109610971094F3F5F4F54
:103700006105710510F40E945C2B81E08093AF028B
:10371000DCC09131E9F41982BE016F5F7F4FC801AF
:103720000E942F19811103C0E981E13119F40E942F
:10373000862F82C0F0E0EE0FFF1FE35AFE4F80811C
:1037400091810E941F0E84E392E00E94A50D74C037
:10375000923179F484E392E00E94A50D0E949B16B9
:103760000E94C0110E946E1D0E94E01F0E948A2BC1
:1037700063C0933161F4BE016F5F7F4FC8010E9447
:103780000F14813011F589810E94191624C09431DB
:1037900069F4BE016F5F7F4FC8010E940F14813032
:1037A000A1F489819A810E94762B15C0953119F474
:1037B0000E941B2E5BC0963189F4BE016F5F7F4F64
:1037C000C8010E940F14813019F022E0F22E4EC081
:1037D00089810E94A31F8130C1F748C0973139F415
:1037E0000E949B1F682F70E080E090E01AC0983123
:1037F000A1F467EC72E0C8010E94EF13823011F06F
:1038000081E008C063EC72E0C8010E94EF138230CF
:10381000E1F280E00E94CC0B29C0993149F40E946A
:1038200075160E94C10E84E392E00E94A50D1EC091
:103830009A3129F40E94A22D94E0F92E17C09B31F1
:10384000A9F467EC72E0C8010E94EF13823021F006
:1038500081E080930E010AC063EC72E0C8010E940F
:10386000EF13823009F4B1CF10920E0180910E0156
:10387000813011F40E94CF0BF11003C082E392E07B
:103880001FC041E0F41205C082E990E00E941F0EC3
:1038900015C052E0F5120BC08CE890E00E941F0E9C
:1038A00084E392E00E94A50D82E0F82E0BC083E035
:1038B000F81208C087E392E00E94A50D84E392E02D
:1038C0000E94A50D0E94101AEF2C8E2D27960FB680
:1038D000F894DEBF0FBECDBFDF91CF911F910F9146
:1038E000FF90EF90DF90CF90089508958730A0F477
:1038F000282F30E0F901E15FFE4F9081961760F0CC
:103900008350823010F4662339F0C9018F5E9F4FD7
:103910000E94FC3181E0089580E008958730A0F492
:10392000282F30E0F901E15FFE4F9081961760F09B
:103930008350823010F4662339F0C901865F9F4FAF
:103940000E94FC3181E0089580E008950F931F9359
:10395000CF93C82F082F10E0C8018F5E9F4F0E94A1
:10396000E831F801E15FFE4F9081981708F4892F44
:10397000C350C23018F4811101C081E0CF911F9172
:103980000F9108950F931F93CF93C82F082F10E026
:10399000C801865F9F4F0E94E831F801E15FFE4F4A
:1039A0009081981708F4892FC350C23018F4811100
:1039B00001C081E0CF911F910F910895FF920F9365
:1039C0001F93CF93DF931F92CDB7DEB715E0812F02
:1039D0000E94A61C082FBE016F5F7F4F812F0E949F
:1039E000BC118981081720F0801304C0115078F7AA
:1039F00001E001C000E015E0812F0E94C21CF82EFA
:103A0000BE016F5F7F4F812F0E94BC1189818F158E
:103A100048F08F1106C0111101C000E0115060F78D
:103A200001C000E0802F0F90DF91CF911F910F9187
:103A3000FF900895CF930E9420130E94DE1C8130D6
:103A400001F58091B0028130E1F0C0E08C2F0E943E
:103A5000C21C682F8C2F0E944C1181110AC0CF5FAD
:103A6000C530A1F786E00E94C21C682F86E00E9444
:103A70004C110E94331F0E94F50B0E94552B81E0D0
:103A800023C00E94DE1C813009F18091B002823097
:103A9000E9F00E945F1F0E94F90B0E94592BC0E0C1
:103AA0008C2F0E94A61C682F8C2F0E944C11811114
:103AB0000AC0CF5FC530A1F786E00E94A61C682F20
:103AC00086E00E944C1182E08093B002CF910C946A
:103AD000901284E00E94F4120C941A1D7F928F922F
:103AE0009F92AF92BF92CF92DF92EF92FF920F938D
:103AF0001F93CF93DF93CDB7DEB762970FB6F894DD
:103B0000DEBF0FBECDBF6E018AE0C80ED11C7601AC
:103B100010E07C2C8D2C812F0E94A61C282F30E0D9
:103B200040E050E063E0C7010E94BF141F5F93E0D4
:103B3000E90EF11C133079F7CE0101967C015C018E
:103B4000982E0F2D812F0E94A61C282F30E040E0D8
:103B500050E063E0C5010E94BF141F5F93E0A90E0F
:103B6000B11C163079F781E394E10E941F0ECE015B
:103B700040960E945D0E84ED91E00E94A50DCE015D
:103B80000D960E945D0E84ED91E00E94A50DC60188
:103B90000E945D0E84E392E00E94A50D84E294E110
:103BA0000E941F0E8DED91E00E94A50DCE0107969B
:103BB0000E945D0E80EE91E00E94A50DCE0104965C
:103BC0000E945D0E80EE91E00E94A50DC7010E944B
:103BD0005D0E84E392E00E94A50D10E0812F0E940B
:103BE000C21C282F30E040E050E063E0C6010E9494
:103BF000BF141F5F83E0C80ED11C133079F7812FEB
:103C00000E94C21C282F30E040E050E063E0C70172
:103C10000E94BF141F5F93E0E90EF11C163079F784
:103C200088E194E10E941F0ECE0140960E945D0E35
:103C300084ED91E00E94A50DCE010D960E945D0ECF
:103C400084ED91E00E94A50D872D982D0E945D0EB8
:103C500084E392E00E94A50D8CE094E10E941F0E87
:103C60008DED91E00E94A50DCE0107960E945D0E9C
:103C700080EE91E00E94A50DCE0104960E945D0E9B
:103C800080EE91E00E94A50D892D902F0E945D0E7F
:103C900084E392E00E94A50D62960FB6F894DEBF11
:103CA0000FBECDBFDF91CF911F910F91FF90EF908D
:103CB000DF90CF90BF90AF909F908F907F900895AE
:103CC000CF93DF931F92CDB7DEB7CE0101960E944E
:103CD00075108981843011F482E009C0823011F4BA
:103CE00081E005C0813011F480E001C084E00E94D1
:103CF000F4120E941A1D0F90DF91CF910895CF9377
:103D0000C82F81E00E94A61C409148082C2F30E06B
:103D1000642F0E946931B901691B7109CB0177FFDA
:103D200006C02CE330E0B901681B790BCB01642F8E
:103D300070E00E948931AC012091470830E081E0B9
:103D40004217530709F080E0CF9108951F93CF9356
:103D5000DF9300D0CDB7DEB7BE016F5F7F4F81E04C
:103D60000E94BC11182F811116C0898161E0680F73
:103D70006C3310F065EC680FCE0101966A830E94E7
:103D80008F1087E00E940A136A8181E00E9450111F
:103D900089810E940A13812F0F900F90DF91CF919C
:103DA0001F91089590917000809117018370833066
:103DB00021F08091B102813059F4809170008160CE
:103DC0008093700090FD0BC081E0809316010895F0
:103DD000809170008E7F809370000C945917089525
:103DE0000F931F93CF93DF9300D0CDB7DEB781E061
:103DF0000E94A61C082FBE016F5F7F4F81E00E94CA
:103E0000BC11182F811127C0298130914808409199
:103E10004708430F822F632F0E946931491B802F6F
:103E20000E946931940F931710F0931BFCCF692FF8
:103E3000620F6C3308F06C53CE0101966A830E94C6
:103E40008F1087E00E940A136A8181E00E9450115E
:103E500089810E940A13812F0F900F90DF91CF91DB
:103E60001F910F910895CF93DF931F92CDB7DEB7C7
:103E700080911701816080931701BE016F5F7F4FB2
:103E800081E00E94BC1189810E947F1E90911701E0
:103E9000813041F49260909317010E94D21E0E94DB
:103EA000A61E07C09D7F909317010E94D21E0E94FC
:103EB000F01E0E94D21E0F90DF91CF910895809145
:103EC00017018E7F809317010C94D21EBC0180EFE6
:103ED00090E00E947531CB010895BC0180EF90E025
:103EE0000E947531CB010895BC0188E190E00C94EB
:103EF000123288E190E00E94F631382F292F80EFAE
:103F000090E0632F722F0E947531655071096833FC
:103F1000710518F4832F922F089588E190E0089599
:103F2000863038F4682F8DE190E00E94FC3181E00A
:103F3000089580E008958DE190E00E94E831863098
:103F400008F080E00895853038F4682F8CE190E027
:103F50000E94FC3181E0089580E008958AE190E0BC
:103F60000E94E8319FEF980F953008F085E00895A2
:103F7000CF938CE190E00E94E831C82F0E94AE1FE1
:103F8000C81708F0C0E08C2FCF9108959FEF980FCD
:103F9000953038F4682F8AE190E00E94FC3181E08E
:103FA000089580E00895682F8BE190E00C94FC3137
:103FB0008BE190E00E94E831863008F080E00895BF
:103FC000CF930E94D81FC82F83EC94E10E941F0E4C
:103FD0000E949B1F811105C08AE392E00E94A50DFB
:103FE00006C0682F70E080E090E00E94C10E84E37C
:103FF00092E00E94A50D89E794E10E941F0E0E94A5
:10400000B81F682F70E080E090E00E94C10E84E34A
:1040100092E00E94A50D84EA94E10E941F0E0E9486
:10402000AE1F682F70E080E090E00E94C10E84E334
:1040300092E00E94A50D8FE392E00E94A50D609191
:1040400051087091520880EF90E00E94753180E035
:1040500090E00E94C10E8FE492E00E94A50D84E3DF
:1040600092E00E94A50D88E994E10E941F0EEC2FBA
:10407000F0E0EE0FFF1FE85EFE4F808191810E940D
:104080001F0E84E392E00E94A50D8BE894E10E944C
:104090001F0E80914F08813019F48FE192E002C029
:1040A0008EE292E00E94A50D84E392E0CF910C9401
:1040B000A50D682F8EE190E00C94FC318EE190E02C
:1040C0000E94E83191E0811101C090E0892F0895AC
:1040D0000E94791F90935208809351080E949B1F61
:1040E000809350080E94B81F809347080E94AE1F1B
:1040F000809348080E945E2080934F080E94D81F3A
:10410000A9E4B8E026E0829FC001112420E030E05D
:10411000F901E80FF91FEB5AFB4EE491ED932F5F85
:104120003F4F26303105A1F7089586E08093B10016
:1041300084E68093B20081E00E940A130C94682008
:1041400081E08093B1020E9433170C94D21E10922A
:10415000B1020C94D21E1F920F920FB60F9211242F
:104160002F933F934F935F936F937F938F939F937F
:10417000AF93BF93EF93FF9384E68093B200809157
:104180004F08882321F08091B102813051F4809151
:10419000B7028F5F8093B70281117AC00E943317F4
:1041A00077C080911601813061F41092B6021092AE
:1041B000B5021092B4021092B3021092B2021092A1
:1041C00016018091B2029091B302009709F049C0A4
:1041D00080915108909152089093B3028093B2025B
:1041E0008091B402813029F40E9459178091B40261
:1041F00034C0811132C0E091B602F0E0E75BF74FC6
:10420000808190E04091B50223E030E0241B310929
:10421000220F331F02C0959587952A95E2F7837088
:1042200099278230910569F08330910571F00197EB
:1042300011F082E001C084E08093B4020E94331741
:1042400016C082E08093B40212C086E08093B4026C
:104250001092B5021092B6021BC081508093B40236
:1042600017C001979093B3028093B20211C080915E
:10427000B5028F5F843050F01092B5028091B60283
:104280008F5F863038F78093B60202C08093B50204
:10429000FF91EF91BF91AF919F918F917F916F911E
:1042A0005F914F913F912F910F900FBE0F901F90F4
:1042B0001895CF93DF931F92CDB7DEB7BE016F5F26
:1042C0007F4F81E00E94BC1189810E947F1E813056
:1042D00041F4809117018260809317010E94D21EE1
:1042E00014C08981882311F0815001C08BE30E94A2
:1042F0007F1E90911701813031F49D7F90931701BB
:104300000E94D21E05C091FF03C00E94A61E02C0DB
:104310000E94F01E0F90DF91CF91089584E392E008
:104320000C94A50DBC0180E090E00E94C10E0C949D
:104330008E210E94A50D0C948E210E941F0E0C94BC
:104340008E210C94A50D0C941F0E6130710529F47B
:10435000BC0180E090E00C94C10E672B29F4BC01F5
:1043600080E090E00C94ED0E08950E94A5210C943D
:104370008E21682F70E080E090E00C94C10E8A30AE
:1043800081F4613019F45C9A0C945618611112C0D2
:104390005C9902C05C9808950E941C228130E1F76C
:1043A000F9CF893039F4613011F45E9A08956111C2
:1043B00001C05E980895893029F489B186FB882769
:1043C00080F9089580E00895893041F4613011F456
:1043D000569A089561110DC0569808958A3049F48F
:1043E000613011F4549A0895611103C08AB180714B
:1043F0008AB908959C0190E0492F50E04217530775
:1044000040F4EFECF7E03197F1F700C000009F5F58
:10441000F3CF089508958EBD0DB407FEFDCF8EB580
:104420000895089508950895813019F48093240122
:1044300008951092240108958091240108952C9BE1
:1044400004C08BB182958170089580E008958093B7
:10445000F4026093F502089581E090E00E94122238
:1044600080E090E00C941322CF93DF93D82FC62FD7
:1044700060E08091F4020E94BF218D2F8E770E9410
:104480000B228C2F0E940B2261E08091F402DF91BD
:10449000CF910C94BF21EF92FF920F931F93CF9374
:1044A000DF9300D0CDB7DEB7082F162F60E08091E4
:1044B000F40249835A830E94BF21802F8E770E9485
:1044C0000B224981042FE42E5A81F52E8E2D801B5C
:1044D000811730F4F70181917F010E940B22F6CF02
:1044E00061E08091F4020F900F90DF91CF911F91C6
:1044F0000F91FF90EF900C94BF21CF93C82F60E0F5
:104500008091F4020E94BF218C2F8E7780680E94D8
:104510000B2280E00E940B22C82F61E08091F40200
:104520000E94BF218C2FCF9108959F92AF92BF928E
:10453000CF92DF92EF92FF920F931F93CF93DF936F
:10454000B62EEA01A22E662309F452C08E77082FF8
:10455000006860E08091F4020E94BF21BA94802F2D
:104560000E940B229C2EEC2EFD2ECC24C394D12C29
:104570008E2D89198B1530F581111BC0AA20C9F029
:104580008A2D10E0883048F49601082E01C0220FD1
:104590000A94EAF7122B8F5FF5CF802F0E940B222F
:1045A000212F2095988192238123192F182B18836E
:1045B00005C0802F0E940B22F7018083FFEFEF1AC6
:1045C000FF0AD6CFCB0DD11D80E00E940B2288833D
:1045D00061E08091F402DF91CF911F910F91FF90E4
:1045E000EF90DF90CF90BF90AF909F900C94BF2141
:1045F000DF91CF911F910F91FF90EF90DF90CF90BF
:10460000BF90AF909F9008951F93CF93DF931F9219
:10461000CDB7DEB7182F69830E947D226981682B90
:10462000812F0F90DF91CF911F910C9434221F9313
:10463000CF93DF931F92CDB7DEB7182F69830E9407
:104640007D22698160956823812F0F90DF91CF9142
:104650001F910C943422EF92FF920F931F93CF93EC
:10466000DF937C01C62F8A0160E082E00E94342241
:1046700064E08AE00E94342260E884E10E9404231E
:10468000A7016C2F82E10E944B2263E082E00E942E
:104690003422C8E8D3E18AE00E947D2282FD04C072
:1046A0002197C9F784E00FC060E082E00E943422C5
:1046B00084E40E947D22F801808382E40E947D22AE
:1046C000F801818381E0DF91CF911F910F91FF90DD
:1046D000EF9008956FE082E00E94342282E390E040
:1046E0000E94FA2182E00E947D2284FDFBCF089582
:1046F00088E20E947D22982F9370933029F0682FD2
:10470000636088E20C943422089561E08091F402A1
:104710000E94E42161E08091F4020E94BF2161E0E7
:104720008091F5020E94E4210E942C228091F502E2
:104730000E94DB2181110AC061E08091F5020E9494
:10474000BF2182E390E00E94FA2102C00E946A2306
:1047500060E884E50E94342269EA86E50E943422FA
:1047600063E088E50E94342268EE8AE50E943422E4
:1047700060E48AE20E9434226DE382E20E943422E5
:104780000C9478234F925F926F927F928F929F92B8
:10479000AF92BF92CF92DF92EF92FF920F931F934F
:1047A000CF93DF9300D000D0CDB7DEB7982E762E12
:1047B000622EC114D10419F0F601608101C060E0DD
:1047C000562EF0E1AF9E500C112460E082E04B8346
:1047D0005C830E9434226FE788E00E94342260E804
:1047E00084E10E9404234B815C81662D82E10E945A
:1047F0004B22652D8AE10E943422692D82E00E94BD
:1048000034228CE0981204C060E88AE10E940423FC
:1048100080ED482E87E0582E88E00E947D22982F58
:10482000972139F480FD5EC0E1E04E1A5108A1F7EE
:1048300059C08CE00E947D22982E837109F054C0EB
:1048400001151105E1F0E114F104C9F084E10E94C1
:104850007D22682FF7018081861708F447C06083A6
:104860002A2DA80182E10E94952288E10E947D22E2
:104870008770B82EC114D10411F0F601808393FC27
:1048800037C001151105B1F1E114F10499F1882047
:1048900089F1F7016081613021F4F4E0BF1203C0B7
:1048A0001FC0623010F488E026C0B110FCCF625007
:1048B000AE014F5F5F4FC8010E942B238130D9F4B6
:1048C000F7018081080F111DF801329790818981CD
:1048D0009813E9CF319690818A819813E4CF0AC06A
:1048E00089E009C084E007C082E005C085E003C01C
:1048F00083E001C081E00F900F900F900F90DF9147
:10490000CF911F910F91FF90EF90DF90CF90BF90CC
:10491000AF909F908F907F906F905F904F90089591
:104920008F92AF92CF92DF92EF92FF920F931F93ED
:104930008C2CAE2C680179018A01262FAC0160E332
:104940008CE00E94C2231F910F91FF90EF90DF90A7
:10495000CF90AF908F900895CF92EF920F931F93C7
:10496000C12C0E9490241F910F91EF90CF90089539
:10497000CF92EF920F931F93C12CE12C0E949024B1
:104980001F910F91EF90CF9008958F92AF92CF9299
:10499000DF92EF92FF920F931F93812CA12CC12CD9
:1049A000D12CE12CF12C00E010E00E94C2231F91D9
:1049B0000F91FF90EF90DF90CF90AF908F90089580
:1049C0008F92AF92CF92DF92EF92FF920F931F934D
:1049D000812CA12C0E94C2231F910F91FF90EF9078
:1049E000DF90CF90AF908F900895CF92DF92EF92AB
:1049F000FF920F931F93CF93DF9300D0CDB7DEB715
:104A00008A836115710509F1FA0180818230E8F02D
:104A10007A016B0160E88CE10E94172387E08983AB
:104A20008E010F5F1F4F9701A60161E0CE01029634
:104A30000E94B824813061F4F7018081823039F41A
:104A40009981911105C081E003C085E001C082E039
:104A50000F900F90DF91CF911F910F91FF90EF90EA
:104A6000DF90CF900895AB01BC0186E20C94F52451
:104A70002F923F924F925F926F927F928F929F926E
:104A8000AF92BF92CF92DF92EF92FF920F931F935C
:104A9000CF93DF93CDB7DEB72C970FB6F894DEBF78
:104AA0000FBECDBF613508F005C1762E6C0160E800
:104AB0008CE10E941723FF24F39488248394912C83
:104AC00022E0F21691F033E0F316E1F041E0F41247
:104AD000F5C083E98983772029F081E0F601908190
:104AE000953008F480E0312C12C085E98983772065
:104AF00029F081E0F6019081983008F480E073E0BD
:104B0000372E05C087E9898366E0362E80E0772D51
:104B1000F8EF3F9E700D112477FD70E0882321F09F
:104B200098E89B8363E001C062E021E0972F9770D3
:104B300009F420E0972F959595959595290F21F4E7
:104B4000882311F1785F20C0811102C094E001C078
:104B500093E0291708F4922F20E030E0432D50E035
:104B6000E62FE20FA1E0B0E0AC0FBD1FAE0FB11D0C
:104B7000F901E40FF51FEC0DFD1DE181EC932F5FB2
:104B80003F4F291768F3DCCF37E0632E40E7542E00
:104B900053E0452E7032FCF05A829C818B8189272C
:104BA0009D8189279E8189278F83AE01485F5F4F52
:104BB00067E0CE0101967C870E942B237C858130A3
:104BC00009F0C7C01B864A869E01295F3F4F5901E5
:104BD00029E0222E1FC0972F97709B87272F25959E
:104BE0002595259582E0820F392F40E1849F300D75
:104BF00011243A8331E0911101C030E0232E280EB8
:104C0000AA24A394B12CAC0EBD1EA80EB11C862DF7
:104C1000821B8A87EB846E2D6295607F6E0D8AE120
:104C20007C870E9434228E01055F1F4F9E01265F04
:104C30003F4FA501622DCE0101960E94AC247C85D8
:104C4000833089F58CE10E947D227C8585FD34C00E
:104C50008F7109F480E2282F30E0472F770F550B32
:104C6000421753075CF5782FC90101978770992780
:104C700025952595259531E0320F21E0811101C060
:104C800020E0230FE1E0F0E0EC0FFD1FE20FF11D4B
:104C9000940102C0220F331F8A95E2F7C901908167
:104CA000892B808377CF813009F053C0703244F470
:104CB00070E272CF87E04DC083E04BC086E049C010
:104CC0008B81883809F042C033E023E080E090E037
:104CD000632D70E0FC01E60FF71FEC0DFD1D432F67
:104CE000480FA1E0B0E0AC0FBD1FA40FB11D4C9167
:104CF00041830196821770F38A85833019F58B857D
:104D0000811120C0AE014D5F5F4F61E0C5010E947F
:104D10002B238130F1F49B81F5018181981314C01C
:104D20009C818281981310C0808182FF02C0F3941D
:104D3000C7CEF60183878F2D880FF80EF394F0828B
:104D400081E007C082E005C088E003C032E024E0D3
:104D5000BDCF2C960FB6F894DEBF0FBECDBFDF914E
:104D6000CF911F910F91FF90EF90DF90CF90BF9068
:104D7000AF909F908F907F906F905F904F903F90FB
:104D80002F90089560E00C943825CF93DF93CDB732
:104D9000DEB72C970FB6F894DEBF0FBECDBFD9019A
:104DA00089836A83BA01CE0103969A012A5F3F4F35
:104DB000FB014191BF01FC014193CF0162177307D1
:104DC000B9F711968C911197898712968C91129749
:104DD0008A8713968C9113978B8714968C918C8766
:104DE0002CE0AE014F5F5F4F60E18EE00E94C52472
:104DF0002C960FB6F894DEBF0FBECDBFDF91CF91DA
:104E0000089568E080E10C941723AF92BF92CF928F
:104E1000EF920F931F93CF93DF9361157105F1F01C
:104E2000FA0190819231D0F05A01EB0190E398831E
:104E30008983AB014E5F5F4F62E0CE010E942B235E
:104E4000813069F4CC24C394E12C00E010E095019A
:104E5000AE0164E0CE010E94902401C085E0DF91A4
:104E6000CF911F910F91EF90CF90BF90AF90089589
:104E7000BF92CF92DF92EF92FF920F931F93CF9347
:104E8000DF93CDB7DEB764970FB6F894DEBF0FBEE1
:104E9000CDBF009709F440C06131F0F5B42E162F54
:104EA000BC01E12EF12CA701CE0101960E94DF3159
:104EB00041E050E04C0F5D1F4E0D5F1D612FCE0194
:104EC00001960E942B23813041F582E18C8B1B8A55
:104ED00022E0210FCE0143966C0101967C018E01E8
:104EE0000F5F1F4FA80160E38CE00E94E024BB200D
:104EF00011F0843069F0813081F48C89813051F473
:104F00009B89943039F499819A3039F089E005C051
:104F100081E003C082E001C087E064960FB6F89498
:104F2000DEBF0FBECDBFDF91CF911F910F91FF90DC
:104F3000EF90DF90CF90BF90089540E00C94382719
:104F4000FF920F931F93CF93DF9300D0CDB7DEB7BF
:104F50006115710599F0403188F0F42E8B0190EACB
:104F600099838A8362E0CE0101960E949D27813059
:104F700031F46F2DC8010E949D2701C087E00F907A
:104F80000F90DF91CF911F910F91FF900895CF93D4
:104F9000DF9300D01F92CDB7DEB782E08B83BE01D6
:104FA0006D5F7F4FCE0101960E943325982F9D7F24
:104FB00081E0913009F080E00F900F900F90DF9129
:104FC000CF91089583E598E00E94C22691E0813058
:104FD00009F090E0892F08950E94112269E08AE08B
:104FE0000E9427220C9485230E94C727882329F03A
:104FF0000E94E22781110E94992B0C940127CF92E5
:10500000DF92EF92FF921F93CF93DF9300D000D0F7
:1050100000D0CDB7DEB7182F7B016A019FEF9983CF
:105020009A839B839C839D839E8323E538E0AE0116
:105030004F5F5F4F682F80E60E94C526813029F4BC
:10504000A601B701812F0E94052726960FB6F89476
:10505000DEBF0FBECDBFDF91CF911F91FF90EF90CC
:10506000DF90CF900895EF92FF920F931F93CF930D
:10507000DF9300D000D000D0CDB7DEB7182F7B0172
:10508000042F9FEF99839A839B839C839D839E83A8
:1050900023E538E0AE014F5F5F4F682F80E60E9446
:1050A000C526813029F4402FB701812F0E94A02707
:1050B00026960FB6F894DEBF0FBECDBFDF91CF911D
:1050C0001F910F91FF90EF9008950C9401270F937B
:1050D0001F93CF93DF931F92CDB7DEB78C010E9451
:1050E0007313811110C060EA81E00E94891381115D
:1050F0000AC0812F0E94AC13811105C0802F0E942D
:10510000AC13882329F089830E94C90F898103C0C9
:105110000E94C90F80E00F90DF91CF911F910F91F6
:105120000895CF93DF931F92CDB7DEB70E94672813
:1051300081110AC00E947313811106C061EA80E0E8
:105140000E948913882329F089830E94C90F8981CD
:1051500003C00E94C90F80E00F90DF91CF910895A6
:105160001F93CF93DF9300D0CDB7DEB70E94CF0F50
:1051700080E090E00E949128882329F08A830E9491
:10518000C90F8A810EC0BE016F5F7F4F81E00E9410
:10519000BF13182F811102C00E94E5130E94C90F8E
:1051A000812F0F900F90DF91CF911F910895CF9392
:1051B000CBE00E94B028882351F0C15039F087EE2F
:1051C00093E00197F1F700C00000F3CF81E0CF91A9
:1051D00008952F923F924F925F926F927F928F929B
:1051E0009F92AF92BF92CF92DF92EF92FF920F9376
:1051F0001F93CF93DF9300D000D000D0CDB7DEB7A0
:105200001C017A016D837E8300E010E0862F8F778A
:1052100090E8981B9A83492E512C612C712C4A01DD
:10522000A12CB12C2D813E81820E931EA11CB11C9C
:10523000240F2B830E151F0508F046C03A813983D1
:10524000D301C2012D813E81820F931FA11DB11D8B
:1052500088169906AA06BB0618F43B81321B3983CF
:105260000E94D728811132C00E94CF0F8D819E816C
:105270000E946728811105C06101C00ED11E90E017
:105280000FC08C830E94C90F8C8121C0F6018191CF
:105290006F019C830E94AC139C818111F2CF9F5FB0
:1052A00029819213F3CF9C830E94E5130E94C90FBA
:1052B0009C81892F90E0080F191F2D813E81280FB6
:1052C000391F3E832D83B6CF80E001C081E0269652
:1052D0000FB6F894DEBF0FBECDBFDF91CF911F9107
:1052E0000F91FF90EF90DF90CF90BF90AF909F9085
:1052F0008F907F906F905F904F903F902F90089588
:10530000CF93DF931F92CDB7DEB7698341E050E0C2
:10531000BC01CE0101960E94E9280F90DF91CF9148
:105320000895CF93DF9300D0CDB7DEB77A8369833A
:1053300042E050E0BC01CE0101960E94E9280F90A6
:105340000F90DF91CF910895CF93DF9300D000D0DD
:10535000CDB7DEB749835A836B837C8344E050E04A
:10536000BC01CE0101960E94E9280F900F900F908A
:105370000F90DF91CF910895BF92CF92DF92EF927D
:10538000FF920F931F93CF93DF931F92CDB7DEB79A
:105390007C016B018A010E94D728B82E81112BC095
:1053A0000E94CF0FC6010E94912881111EC0D12CEE
:1053B000015011092D2D30E0B7012017310748F4B5
:1053C000620F731F80E00E94BF1381110EC0D3943F
:1053D000F1CF600F711F81E00E94BF13811105C0E2
:1053E0000E94E5130E94C90F08C089830E94C90F5B
:1053F0008981B82E02C0BB24B3948B2D0F90DF910E
:10540000CF911F910F91FF90EF90DF90CF90BF90C1
:1054100008959C01CB0141E050E0B9010C94BC29F6
:105420009C01CB0142E050E0B9010C94BC299C01E5
:10543000CB0144E050E0B9010C94BC290F931F93B9
:10544000CF93DF93CDB7DEB763970FB6F894DEBF87
:105450000FBECDBF8C0182E18B8BAE014D5E5F4FE5
:10546000BE016F5F7F4F81E00E94FF27813071F4A2
:105470009B89923151F42A8130E0322F2227998181
:10548000292BF8013183208301C082E063960FB697
:10549000F894DEBF0FBECDBFDF91CF911F910F916A
:1054A00008958F929F92AF92BF92CF92DF92EF9228
:1054B000FF920F931F93CF93DF93CDB7DEB7639720
:1054C0000FB6F894DEBF0FBECDBF82E18B8BAE016D
:1054D0004D5E5F4FBE016F5F7F4F81E00E94FF27EF
:1054E000B82E81E0B812C2C08B89823119F062E017
:1054F000B62EBCC084E392E00E94A50D89E896E137
:105500000E941F0E84E392E00E94A50D84E392E0C6
:105510000E94A50DFE0131967F0155E2C52E51E096
:10552000D52EB12CF701618170E0762F662780813E
:105530008B01082BF601819191916F010E941F0E42
:10554000BB2021F08DEB96E10E941F0EB80180E098
:1055500090E00E94C10E84E392E00E94A50DB394F6
:10556000F2E0EF0EF11C86E0B812DCCF84E392E0AB
:105570000E94A50DE12CF12C6E0194E1C90ED11C05
:1055800032E1932EF701EB5DFE4F828193810E9401
:105590001F0E8AEB96E10E941F0E84E392E00E94A8
:1055A000A50D22E0A22EAE0CAA0C812C9B8AAE0186
:1055B0004D5E5F4FBE016F5F7F4F882D8A0D0E9449
:1055C000FF27B82EE1E08E1351C08B89823109F09C
:1055D0008ECF8E010C5F1F4F85EE96E10E941F0E4D
:1055E000F8013297608170E0762F662731978081CD
:1055F000682B80E090E00E94C10E84E392E00E945C
:10560000A50D84EA96E10E941F0EF801608170E00A
:10561000762F662731978081682B80E090E00E948A
:10562000C10E84E392E00E94A50D0C5F1F4F0C1584
:105630001D0591F68394F3E08F12B8CF84E392E0D6
:105640000E94A50D82E0E80EF11C9AE0E916F10433
:1056500009F098CF8EE696E10E941F0E84E392E057
:105660000E94A50D84E392E00E94A50D0E9465288A
:10567000E1E0BE1621F081E596E10E941F0E8B2D20
:1056800063960FB6F894DEBF0FBECDBFDF91CF910A
:105690001F910F91FF90EF90DF90CF90BF90AF9050
:1056A0009F908F900895559A089581E08093BC0251
:1056B00008951092BC020895009769F02091BB02F2
:1056C000211109C021E02093BB029093BA0280937C
:1056D000B90281E0089580E0089581E09091BB02D5
:1056E000911180E008951092BB020895009739F05F
:1056F000BC018FE190E00E94123281E0089580E0C9
:1057000008958FE190E00E94F631009711F481E056
:1057100090E0089584E592E00E94A50D0E94812BFF
:10572000BC0180E090E00E94C10E84E392E00C9402
:10573000A50D8F929F92AF92BF92CF92DF92EF9280
:10574000FF920F931F93CF93DF93CDB7DEB76A9786
:105750000FB6F894DEBF0FBECDBF8091BB02813083
:1057600009F054C0CE0101967C0180E1F70111924D
:105770008A95E9F740E1B70181E00E943328182FAC
:105780008130C1F49091B9028091BA0299838A83E1
:10579000FE013396CE010D961192E817F907E1F755
:1057A00040E1B70181E00E943328182F813011F4C5
:1057B0001092BB020E946528113049F083EB95E1FD
:1057C0000E941F0E84E392E00E94A50DA7C181E60E
:1057D00092E00E94A50D6091B9027091BA0280E03A
:1057E00090E00E94C10E89E692E00E94A50D84E33C
:1057F00092E00E94A50D8091B9029091BA02909317
:10580000F3028093F2021092310186C10E949B1F25
:10581000882309F455C18091BC02813009F050C140
:10582000CE0147960E941E2A182F813009F074C1BC
:10583000EF88F88CE091BD02EE2311F0E15001C039
:10584000ECE024E0E29FF0011124E254FD4F2081BE
:1058500030E0C70199272817390751F05E0183E12D
:10586000A80EB11CFE0131964F0100E0650108C091
:10587000818190E02F2D33278217930779F778C025
:10588000B501802F0E94BC11802F0E94A61CF4013C
:1058900081934F010F5FFFEFAF1ABF0A043081F70A
:1058A00020E030E0A901E3E06E2F70E0D601A60F02
:1058B000B71F8C9190E0A1E0B0E0AC0FBD1FA60F28
:1058C000B71F6C91861B9109092E000CAA0BBB0B0C
:1058D000280F391F4A1F5B1FE23041F0E33019F0F7
:1058E000E13051F403C0A8E1B0E002C0ACE3B0E0A5
:1058F0000E94C5319B01AC01E150B0F6DA01C9014B
:1059000057FF03C080E090E0DC01E091BD0224E09D
:10591000E29FF0011124E254FD4FE082F182828384
:105920009383BE01675E7F4F80E090E00E94092A6A
:10593000E98CF12C8091BD02E4E08E9FC00111241E
:1059400044E050E0B70182549D4F0E94E928B7011E
:105950006C5F7F4F80E090E00E9480298091BD02C3
:105960008F5F8C3018F48093BD0202C01092BD028C
:105970002F89388D8091F0029091F1022817390714
:1059800009F49CC0F090BD02E12C00E0AE014F5F35
:105990005F4F24E0FF2011F0FA9402C09BE0F92E43
:1059A000F4E0FF9EB0011124DA0180E090E0FC01F8
:1059B000E60FF71FE254FD4F30813D93019684308E
:1059C0009105A9F721504C5F5F4F2111E3CF0E9451
:1059D0009B1F811101C081E0880F880F40E1BE014B
:1059E0006F5F7F4F800F0E943328182F813039F06E
:1059F000E39425E02E1508F440C0015001C0E12CCD
:105A00000F5F033018F206E082E1F82EFB8AAE0148
:105A10004D5E5F4FBE016F5F7F4F81E00E94FF27A9
:105A2000182F813019F48B89823119F0015071F7E8
:105A300024C00E94812B182F9A8F0E94D81FFE012C
:105A40003196E80FF11DE80FF11D12830E94D81F57
:105A5000FE013196E80FF11DE80FF11D9A8D938339
:105A600006E040E1BE016F5F7F4F81E00E94332876
:105A7000182F813011F00150A1F70FB6F894DEBF56
:105A80000FBECDBF1130D1F48FE396E10E941F0EFF
:105A900083E792E00E94A50D6F89788D80E090E009
:105AA0000E94C10E84E392E00E94A50D8F89988D1B
:105AB0009093F1028093F00201E004C000E002C084
:105AC00000E011E0CE0101960E941E2A813021F5EE
:105AD00029813A818091F2029091F30228173907C7
